{
  "contractName": "PancakeRouter01",
  "abi": [
    {
      "inputs": [
        {
          "internalType": "address",
          "name": "_factory",
          "type": "address"
        },
        {
          "internalType": "address",
          "name": "_WETH",
          "type": "address"
        }
      ],
      "stateMutability": "nonpayable",
      "type": "constructor"
    },
    {
      "inputs": [],
      "name": "WETH",
      "outputs": [
        {
          "internalType": "address",
          "name": "",
          "type": "address"
        }
      ],
      "stateMutability": "view",
      "type": "function",
      "constant": true
    },
    {
      "inputs": [],
      "name": "factory",
      "outputs": [
        {
          "internalType": "address",
          "name": "",
          "type": "address"
        }
      ],
      "stateMutability": "view",
      "type": "function",
      "constant": true
    },
    {
      "stateMutability": "payable",
      "type": "receive",
      "payable": true
    },
    {
      "inputs": [
        {
          "internalType": "address",
          "name": "tokenA",
          "type": "address"
        },
        {
          "internalType": "address",
          "name": "tokenB",
          "type": "address"
        },
        {
          "internalType": "uint256",
          "name": "amountADesired",
          "type": "uint256"
        },
        {
          "internalType": "uint256",
          "name": "amountBDesired",
          "type": "uint256"
        },
        {
          "internalType": "uint256",
          "name": "amountAMin",
          "type": "uint256"
        },
        {
          "internalType": "uint256",
          "name": "amountBMin",
          "type": "uint256"
        },
        {
          "internalType": "address",
          "name": "to",
          "type": "address"
        },
        {
          "internalType": "uint256",
          "name": "deadline",
          "type": "uint256"
        }
      ],
      "name": "addLiquidity",
      "outputs": [
        {
          "internalType": "uint256",
          "name": "amountA",
          "type": "uint256"
        },
        {
          "internalType": "uint256",
          "name": "amountB",
          "type": "uint256"
        },
        {
          "internalType": "uint256",
          "name": "liquidity",
          "type": "uint256"
        }
      ],
      "stateMutability": "nonpayable",
      "type": "function"
    },
    {
      "inputs": [
        {
          "internalType": "address",
          "name": "token",
          "type": "address"
        },
        {
          "internalType": "uint256",
          "name": "amountTokenDesired",
          "type": "uint256"
        },
        {
          "internalType": "uint256",
          "name": "amountTokenMin",
          "type": "uint256"
        },
        {
          "internalType": "uint256",
          "name": "amountETHMin",
          "type": "uint256"
        },
        {
          "internalType": "address",
          "name": "to",
          "type": "address"
        },
        {
          "internalType": "uint256",
          "name": "deadline",
          "type": "uint256"
        }
      ],
      "name": "addLiquidityETH",
      "outputs": [
        {
          "internalType": "uint256",
          "name": "amountToken",
          "type": "uint256"
        },
        {
          "internalType": "uint256",
          "name": "amountETH",
          "type": "uint256"
        },
        {
          "internalType": "uint256",
          "name": "liquidity",
          "type": "uint256"
        }
      ],
      "stateMutability": "payable",
      "type": "function",
      "payable": true
    },
    {
      "inputs": [
        {
          "internalType": "address",
          "name": "tokenA",
          "type": "address"
        },
        {
          "internalType": "address",
          "name": "tokenB",
          "type": "address"
        },
        {
          "internalType": "uint256",
          "name": "liquidity",
          "type": "uint256"
        },
        {
          "internalType": "uint256",
          "name": "amountAMin",
          "type": "uint256"
        },
        {
          "internalType": "uint256",
          "name": "amountBMin",
          "type": "uint256"
        },
        {
          "internalType": "address",
          "name": "to",
          "type": "address"
        },
        {
          "internalType": "uint256",
          "name": "deadline",
          "type": "uint256"
        }
      ],
      "name": "removeLiquidity",
      "outputs": [
        {
          "internalType": "uint256",
          "name": "amountA",
          "type": "uint256"
        },
        {
          "internalType": "uint256",
          "name": "amountB",
          "type": "uint256"
        }
      ],
      "stateMutability": "nonpayable",
      "type": "function"
    },
    {
      "inputs": [
        {
          "internalType": "address",
          "name": "token",
          "type": "address"
        },
        {
          "internalType": "uint256",
          "name": "liquidity",
          "type": "uint256"
        },
        {
          "internalType": "uint256",
          "name": "amountTokenMin",
          "type": "uint256"
        },
        {
          "internalType": "uint256",
          "name": "amountETHMin",
          "type": "uint256"
        },
        {
          "internalType": "address",
          "name": "to",
          "type": "address"
        },
        {
          "internalType": "uint256",
          "name": "deadline",
          "type": "uint256"
        }
      ],
      "name": "removeLiquidityETH",
      "outputs": [
        {
          "internalType": "uint256",
          "name": "amountToken",
          "type": "uint256"
        },
        {
          "internalType": "uint256",
          "name": "amountETH",
          "type": "uint256"
        }
      ],
      "stateMutability": "nonpayable",
      "type": "function"
    },
    {
      "inputs": [
        {
          "internalType": "address",
          "name": "tokenA",
          "type": "address"
        },
        {
          "internalType": "address",
          "name": "tokenB",
          "type": "address"
        },
        {
          "internalType": "uint256",
          "name": "liquidity",
          "type": "uint256"
        },
        {
          "internalType": "uint256",
          "name": "amountAMin",
          "type": "uint256"
        },
        {
          "internalType": "uint256",
          "name": "amountBMin",
          "type": "uint256"
        },
        {
          "internalType": "address",
          "name": "to",
          "type": "address"
        },
        {
          "internalType": "uint256",
          "name": "deadline",
          "type": "uint256"
        },
        {
          "internalType": "bool",
          "name": "approveMax",
          "type": "bool"
        },
        {
          "internalType": "uint8",
          "name": "v",
          "type": "uint8"
        },
        {
          "internalType": "bytes32",
          "name": "r",
          "type": "bytes32"
        },
        {
          "internalType": "bytes32",
          "name": "s",
          "type": "bytes32"
        }
      ],
      "name": "removeLiquidityWithPermit",
      "outputs": [
        {
          "internalType": "uint256",
          "name": "amountA",
          "type": "uint256"
        },
        {
          "internalType": "uint256",
          "name": "amountB",
          "type": "uint256"
        }
      ],
      "stateMutability": "nonpayable",
      "type": "function"
    },
    {
      "inputs": [
        {
          "internalType": "address",
          "name": "token",
          "type": "address"
        },
        {
          "internalType": "uint256",
          "name": "liquidity",
          "type": "uint256"
        },
        {
          "internalType": "uint256",
          "name": "amountTokenMin",
          "type": "uint256"
        },
        {
          "internalType": "uint256",
          "name": "amountETHMin",
          "type": "uint256"
        },
        {
          "internalType": "address",
          "name": "to",
          "type": "address"
        },
        {
          "internalType": "uint256",
          "name": "deadline",
          "type": "uint256"
        },
        {
          "internalType": "bool",
          "name": "approveMax",
          "type": "bool"
        },
        {
          "internalType": "uint8",
          "name": "v",
          "type": "uint8"
        },
        {
          "internalType": "bytes32",
          "name": "r",
          "type": "bytes32"
        },
        {
          "internalType": "bytes32",
          "name": "s",
          "type": "bytes32"
        }
      ],
      "name": "removeLiquidityETHWithPermit",
      "outputs": [
        {
          "internalType": "uint256",
          "name": "amountToken",
          "type": "uint256"
        },
        {
          "internalType": "uint256",
          "name": "amountETH",
          "type": "uint256"
        }
      ],
      "stateMutability": "nonpayable",
      "type": "function"
    },
    {
      "inputs": [
        {
          "internalType": "uint256",
          "name": "amountIn",
          "type": "uint256"
        },
        {
          "internalType": "uint256",
          "name": "amountOutMin",
          "type": "uint256"
        },
        {
          "internalType": "address[]",
          "name": "path",
          "type": "address[]"
        },
        {
          "internalType": "address",
          "name": "to",
          "type": "address"
        },
        {
          "internalType": "uint256",
          "name": "deadline",
          "type": "uint256"
        }
      ],
      "name": "swapExactTokensForTokens",
      "outputs": [
        {
          "internalType": "uint256[]",
          "name": "amounts",
          "type": "uint256[]"
        }
      ],
      "stateMutability": "nonpayable",
      "type": "function"
    },
    {
      "inputs": [
        {
          "internalType": "uint256",
          "name": "amountOut",
          "type": "uint256"
        },
        {
          "internalType": "uint256",
          "name": "amountInMax",
          "type": "uint256"
        },
        {
          "internalType": "address[]",
          "name": "path",
          "type": "address[]"
        },
        {
          "internalType": "address",
          "name": "to",
          "type": "address"
        },
        {
          "internalType": "uint256",
          "name": "deadline",
          "type": "uint256"
        }
      ],
      "name": "swapTokensForExactTokens",
      "outputs": [
        {
          "internalType": "uint256[]",
          "name": "amounts",
          "type": "uint256[]"
        }
      ],
      "stateMutability": "nonpayable",
      "type": "function"
    },
    {
      "inputs": [
        {
          "internalType": "uint256",
          "name": "amountOutMin",
          "type": "uint256"
        },
        {
          "internalType": "address[]",
          "name": "path",
          "type": "address[]"
        },
        {
          "internalType": "address",
          "name": "to",
          "type": "address"
        },
        {
          "internalType": "uint256",
          "name": "deadline",
          "type": "uint256"
        }
      ],
      "name": "swapExactETHForTokens",
      "outputs": [
        {
          "internalType": "uint256[]",
          "name": "amounts",
          "type": "uint256[]"
        }
      ],
      "stateMutability": "payable",
      "type": "function",
      "payable": true
    },
    {
      "inputs": [
        {
          "internalType": "uint256",
          "name": "amountOut",
          "type": "uint256"
        },
        {
          "internalType": "uint256",
          "name": "amountInMax",
          "type": "uint256"
        },
        {
          "internalType": "address[]",
          "name": "path",
          "type": "address[]"
        },
        {
          "internalType": "address",
          "name": "to",
          "type": "address"
        },
        {
          "internalType": "uint256",
          "name": "deadline",
          "type": "uint256"
        }
      ],
      "name": "swapTokensForExactETH",
      "outputs": [
        {
          "internalType": "uint256[]",
          "name": "amounts",
          "type": "uint256[]"
        }
      ],
      "stateMutability": "nonpayable",
      "type": "function"
    },
    {
      "inputs": [
        {
          "internalType": "uint256",
          "name": "amountIn",
          "type": "uint256"
        },
        {
          "internalType": "uint256",
          "name": "amountOutMin",
          "type": "uint256"
        },
        {
          "internalType": "address[]",
          "name": "path",
          "type": "address[]"
        },
        {
          "internalType": "address",
          "name": "to",
          "type": "address"
        },
        {
          "internalType": "uint256",
          "name": "deadline",
          "type": "uint256"
        }
      ],
      "name": "swapExactTokensForETH",
      "outputs": [
        {
          "internalType": "uint256[]",
          "name": "amounts",
          "type": "uint256[]"
        }
      ],
      "stateMutability": "nonpayable",
      "type": "function"
    },
    {
      "inputs": [
        {
          "internalType": "uint256",
          "name": "amountOut",
          "type": "uint256"
        },
        {
          "internalType": "address[]",
          "name": "path",
          "type": "address[]"
        },
        {
          "internalType": "address",
          "name": "to",
          "type": "address"
        },
        {
          "internalType": "uint256",
          "name": "deadline",
          "type": "uint256"
        }
      ],
      "name": "swapETHForExactTokens",
      "outputs": [
        {
          "internalType": "uint256[]",
          "name": "amounts",
          "type": "uint256[]"
        }
      ],
      "stateMutability": "payable",
      "type": "function",
      "payable": true
    },
    {
      "inputs": [
        {
          "internalType": "uint256",
          "name": "amountA",
          "type": "uint256"
        },
        {
          "internalType": "uint256",
          "name": "reserveA",
          "type": "uint256"
        },
        {
          "internalType": "uint256",
          "name": "reserveB",
          "type": "uint256"
        }
      ],
      "name": "quote",
      "outputs": [
        {
          "internalType": "uint256",
          "name": "amountB",
          "type": "uint256"
        }
      ],
      "stateMutability": "pure",
      "type": "function",
      "constant": true
    },
    {
      "inputs": [
        {
          "internalType": "uint256",
          "name": "amountIn",
          "type": "uint256"
        },
        {
          "internalType": "uint256",
          "name": "reserveIn",
          "type": "uint256"
        },
        {
          "internalType": "uint256",
          "name": "reserveOut",
          "type": "uint256"
        }
      ],
      "name": "getAmountOut",
      "outputs": [
        {
          "internalType": "uint256",
          "name": "amountOut",
          "type": "uint256"
        }
      ],
      "stateMutability": "pure",
      "type": "function",
      "constant": true
    },
    {
      "inputs": [
        {
          "internalType": "uint256",
          "name": "amountOut",
          "type": "uint256"
        },
        {
          "internalType": "uint256",
          "name": "reserveIn",
          "type": "uint256"
        },
        {
          "internalType": "uint256",
          "name": "reserveOut",
          "type": "uint256"
        }
      ],
      "name": "getAmountIn",
      "outputs": [
        {
          "internalType": "uint256",
          "name": "amountIn",
          "type": "uint256"
        }
      ],
      "stateMutability": "pure",
      "type": "function",
      "constant": true
    },
    {
      "inputs": [
        {
          "internalType": "uint256",
          "name": "amountIn",
          "type": "uint256"
        },
        {
          "internalType": "address[]",
          "name": "path",
          "type": "address[]"
        }
      ],
      "name": "getAmountsOut",
      "outputs": [
        {
          "internalType": "uint256[]",
          "name": "amounts",
          "type": "uint256[]"
        }
      ],
      "stateMutability": "view",
      "type": "function",
      "constant": true
    },
    {
      "inputs": [
        {
          "internalType": "uint256",
          "name": "amountOut",
          "type": "uint256"
        },
        {
          "internalType": "address[]",
          "name": "path",
          "type": "address[]"
        }
      ],
      "name": "getAmountsIn",
      "outputs": [
        {
          "internalType": "uint256[]",
          "name": "amounts",
          "type": "uint256[]"
        }
      ],
      "stateMutability": "view",
      "type": "function",
      "constant": true
    }
  ],
  "bytecode": "0x60c060405234801561001057600080fd5b50604051620050e1380380620050e18339818101604052604081101561003557600080fd5b8101908080519060200190929190805190602001909291905050508173ffffffffffffffffffffffffffffffffffffffff1660808173ffffffffffffffffffffffffffffffffffffffff1660601b815250508073ffffffffffffffffffffffffffffffffffffffff1660a08173ffffffffffffffffffffffffffffffffffffffff1660601b81525050505060805160601c60a05160601c614f25620001bc6000398061011f528061118052806111be52806112ee52806115cc5280611b405280611e1b5280611f62528061212a52806121bf52806126135280612a515280612def5280612e485280612e7c5280612efd528061313d528061330252806133975250806113e052806114ec528061169f52806116d752806118d052806119dc5280611c325280611d3b528061204f52806121fe528061241f528061252852806126cc52806129ce52806129f75280612a2f5280612c615280612e26528061322a52806133d65280613fd5528061401952806145af52806146d752806147ed5250614f256000f3fe6080604052600436106101185760003560e01c80638803dbee116100a0578063d06ca61f11610064578063d06ca61f14610c64578063ded9382a14610d88578063e8e3370014610e6a578063f305d71914610f50578063fb3bdb4114610ffe57610174565b80638803dbee14610966578063ad5c464814610a7f578063ad615dec14610ad6578063baa2abde14610b39578063c45a015514610c0d57610174565b80632195995c116100e75780632195995c146104cd57806338ed1739146105cf5780634a25d94a146106e85780637ff36ab51461080157806385f8c2591461090357610174565b806302751cec14610179578063054d50d41461022d57806318cbafe5146102905780631f00ca74146103a957610174565b36610174577f000000000000000000000000000000000000000000000000000000000000000073ffffffffffffffffffffffffffffffffffffffff163373ffffffffffffffffffffffffffffffffffffffff161461017257fe5b005b600080fd5b34801561018557600080fd5b50610210600480360360c081101561019c57600080fd5b81019080803573ffffffffffffffffffffffffffffffffffffffff169060200190929190803590602001909291908035906020019092919080359060200190929190803573ffffffffffffffffffffffffffffffffffffffff16906020019092919080359060200190929190505050611100565b604051808381526020018281526020019250505060405180910390f35b34801561023957600080fd5b5061027a6004803603606081101561025057600080fd5b8101908080359060200190929190803590602001909291908035906020019092919050505061125d565b6040518082815260200191505060405180910390f35b34801561029c57600080fd5b50610352600480360360a08110156102b357600080fd5b810190808035906020019092919080359060200190929190803590602001906401000000008111156102e457600080fd5b8201836020820111156102f657600080fd5b8035906020019184602083028401116401000000008311171561031857600080fd5b9091929391929390803573ffffffffffffffffffffffffffffffffffffffff16906020019092919080359060200190929190505050611273565b6040518080602001828103825283818151815260200191508051906020019060200280838360005b8381101561039557808201518184015260208101905061037a565b505050509050019250505060405180910390f35b3480156103b557600080fd5b50610476600480360360408110156103cc57600080fd5b8101908080359060200190929190803590602001906401000000008111156103f357600080fd5b82018360208201111561040557600080fd5b8035906020019184602083028401116401000000008311171561042757600080fd5b919080806020026020016040519081016040528093929190818152602001838360200280828437600081840152601f19601f820116905080830192505050505050509192919290505050611698565b6040518080602001828103825283818151815260200191508051906020019060200280838360005b838110156104b957808201518184015260208101905061049e565b505050509050019250505060405180910390f35b3480156104d957600080fd5b506105b260048036036101608110156104f157600080fd5b81019080803573ffffffffffffffffffffffffffffffffffffffff169060200190929190803573ffffffffffffffffffffffffffffffffffffffff169060200190929190803590602001909291908035906020019092919080359060200190929190803573ffffffffffffffffffffffffffffffffffffffff16906020019092919080359060200190929190803515159060200190929190803560ff16906020019092919080359060200190929190803590602001909291905050506116cd565b604051808381526020018281526020019250505060405180910390f35b3480156105db57600080fd5b50610691600480360360a08110156105f257600080fd5b8101908080359060200190929190803590602001909291908035906020019064010000000081111561062357600080fd5b82018360208201111561063557600080fd5b8035906020019184602083028401116401000000008311171561065757600080fd5b9091929391929390803573ffffffffffffffffffffffffffffffffffffffff16906020019092919080359060200190929190505050611852565b6040518080602001828103825283818151815260200191508051906020019060200280838360005b838110156106d45780820151818401526020810190506106b9565b505050509050019250505060405180910390f35b3480156106f457600080fd5b506107aa600480360360a081101561070b57600080fd5b8101908080359060200190929190803590602001909291908035906020019064010000000081111561073c57600080fd5b82018360208201111561074e57600080fd5b8035906020019184602083028401116401000000008311171561077057600080fd5b9091929391929390803573ffffffffffffffffffffffffffffffffffffffff16906020019092919080359060200190929190505050611ac5565b6040518080602001828103825283818151815260200191508051906020019060200280838360005b838110156107ed5780820151818401526020810190506107d2565b505050509050019250505060405180910390f35b6108ac6004803603608081101561081757600080fd5b81019080803590602001909291908035906020019064010000000081111561083e57600080fd5b82018360208201111561085057600080fd5b8035906020019184602083028401116401000000008311171561087257600080fd5b9091929391929390803573ffffffffffffffffffffffffffffffffffffffff16906020019092919080359060200190929190505050611ee7565b6040518080602001828103825283818151815260200191508051906020019060200280838360005b838110156108ef5780820151818401526020810190506108d4565b505050509050019250505060405180910390f35b34801561090f57600080fd5b506109506004803603606081101561092657600080fd5b8101908080359060200190929190803590602001909291908035906020019092919050505061238b565b6040518082815260200191505060405180910390f35b34801561097257600080fd5b50610a28600480360360a081101561098957600080fd5b810190808035906020019092919080359060200190929190803590602001906401000000008111156109ba57600080fd5b8201836020820111156109cc57600080fd5b803590602001918460208302840111640100000000831117156109ee57600080fd5b9091929391929390803573ffffffffffffffffffffffffffffffffffffffff169060200190929190803590602001909291905050506123a1565b6040518080602001828103825283818151815260200191508051906020019060200280838360005b83811015610a6b578082015181840152602081019050610a50565b505050509050019250505060405180910390f35b348015610a8b57600080fd5b50610a94612611565b604051808273ffffffffffffffffffffffffffffffffffffffff1673ffffffffffffffffffffffffffffffffffffffff16815260200191505060405180910390f35b348015610ae257600080fd5b50610b2360048036036060811015610af957600080fd5b81019080803590602001909291908035906020019092919080359060200190929190505050612635565b6040518082815260200191505060405180910390f35b348015610b4557600080fd5b50610bf0600480360360e0811015610b5c57600080fd5b81019080803573ffffffffffffffffffffffffffffffffffffffff169060200190929190803573ffffffffffffffffffffffffffffffffffffffff169060200190929190803590602001909291908035906020019092919080359060200190929190803573ffffffffffffffffffffffffffffffffffffffff1690602001909291908035906020019092919050505061264b565b604051808381526020018281526020019250505060405180910390f35b348015610c1957600080fd5b50610c226129cc565b604051808273ffffffffffffffffffffffffffffffffffffffff1673ffffffffffffffffffffffffffffffffffffffff16815260200191505060405180910390f35b348015610c7057600080fd5b50610d3160048036036040811015610c8757600080fd5b810190808035906020019092919080359060200190640100000000811115610cae57600080fd5b820183602082011115610cc057600080fd5b80359060200191846020830284011164010000000083111715610ce257600080fd5b919080806020026020016040519081016040528093929190818152602001838360200280828437600081840152601f19601f8201169050808301925050505050505091929192905050506129f0565b6040518080602001828103825283818151815260200191508051906020019060200280838360005b83811015610d74578082015181840152602081019050610d59565b505050509050019250505060405180910390f35b348015610d9457600080fd5b50610e4d6004803603610140811015610dac57600080fd5b81019080803573ffffffffffffffffffffffffffffffffffffffff169060200190929190803590602001909291908035906020019092919080359060200190929190803573ffffffffffffffffffffffffffffffffffffffff16906020019092919080359060200190929190803515159060200190929190803560ff1690602001909291908035906020019092919080359060200190929190505050612a25565b604051808381526020018281526020019250505060405180910390f35b348015610e7657600080fd5b50610f2c6004803603610100811015610e8e57600080fd5b81019080803573ffffffffffffffffffffffffffffffffffffffff169060200190929190803573ffffffffffffffffffffffffffffffffffffffff16906020019092919080359060200190929190803590602001909291908035906020019092919080359060200190929190803573ffffffffffffffffffffffffffffffffffffffff16906020019092919080359060200190929190505050612bc8565b60405180848152602001838152602001828152602001935050505060405180910390f35b610fda600480360360c0811015610f6657600080fd5b81019080803573ffffffffffffffffffffffffffffffffffffffff169060200190929190803590602001909291908035906020019092919080359060200190929190803573ffffffffffffffffffffffffffffffffffffffff16906020019092919080359060200190929190505050612d6d565b60405180848152602001838152602001828152602001935050505060405180910390f35b6110a96004803603608081101561101457600080fd5b81019080803590602001909291908035906020019064010000000081111561103b57600080fd5b82018360208201111561104d57600080fd5b8035906020019184602083028401116401000000008311171561106f57600080fd5b9091929391929390803573ffffffffffffffffffffffffffffffffffffffff169060200190929190803590602001909291905050506130c2565b6040518080602001828103825283818151815260200191508051906020019060200280838360005b838110156110ec5780820151818401526020810190506110d1565b505050509050019250505060405180910390f35b600080824281101561117a576040517f08c379a00000000000000000000000000000000000000000000000000000000081526004018080602001828103825260168152602001807f50616e63616b65526f757465723a20455850495245440000000000000000000081525060200191505060405180910390fd5b6111a9897f00000000000000000000000000000000000000000000000000000000000000008a8a8a308a61264b565b80935081945050506111bc8986856135a0565b7f000000000000000000000000000000000000000000000000000000000000000073ffffffffffffffffffffffffffffffffffffffff16632e1a7d4d836040518263ffffffff1660e01b815260040180828152602001915050600060405180830381600087803b15801561122f57600080fd5b505af1158015611243573d6000803e3d6000fd5b505050506112518583613799565b50965096945050505050565b600061126a8484846138f8565b90509392505050565b606081428110156112ec576040517f08c379a00000000000000000000000000000000000000000000000000000000081526004018080602001828103825260168152602001807f50616e63616b65526f757465723a20455850495245440000000000000000000081525060200191505060405180910390fd5b7f000000000000000000000000000000000000000000000000000000000000000073ffffffffffffffffffffffffffffffffffffffff1686866001898990500381811061133557fe5b9050602002013573ffffffffffffffffffffffffffffffffffffffff1673ffffffffffffffffffffffffffffffffffffffff16146113db576040517f08c379a000000000000000000000000000000000000000000000000000000000815260040180806020018281038252601b8152602001807f50616e63616b65526f757465723a20494e56414c49445f50415448000000000081525060200191505060405180910390fd5b6114477f000000000000000000000000000000000000000000000000000000000000000089888880806020026020016040519081016040528093929190818152602001838360200280828437600081840152601f19601f82011690508083019250505050505050613a28565b9150868260018451038151811061145a57fe5b602002602001015110156114b9576040517f08c379a0000000000000000000000000000000000000000000000000000000008152600401808060200182810382526029815260200180614da76029913960400191505060405180910390fd5b61157e868660008181106114c957fe5b9050602002013573ffffffffffffffffffffffffffffffffffffffff16336115647f00000000000000000000000000000000000000000000000000000000000000008a8a600081811061151857fe5b9050602002013573ffffffffffffffffffffffffffffffffffffffff168b8b600181811061154257fe5b9050602002013573ffffffffffffffffffffffffffffffffffffffff16613ba0565b8560008151811061157157fe5b6020026020010151613cfb565b6115ca82878780806020026020016040519081016040528093929190818152602001838360200280828437600081840152601f19601f8201169050808301925050505050505030613f0c565b7f000000000000000000000000000000000000000000000000000000000000000073ffffffffffffffffffffffffffffffffffffffff16632e1a7d4d8360018551038151811061161657fe5b60200260200101516040518263ffffffff1660e01b815260040180828152602001915050600060405180830381600087803b15801561165457600080fd5b505af1158015611668573d6000803e3d6000fd5b5050505061168d848360018551038151811061168057fe5b6020026020010151613799565b509695505050505050565b60606116c57f000000000000000000000000000000000000000000000000000000000000000084846141b7565b905092915050565b60008060006116fd7f00000000000000000000000000000000000000000000000000000000000000008f8f613ba0565b905060008761170c578c61172e565b7fffffffffffffffffffffffffffffffffffffffffffffffffffffffffffffffff5b90508173ffffffffffffffffffffffffffffffffffffffff1663d505accf3330848d8c8c8c6040518863ffffffff1660e01b8152600401808873ffffffffffffffffffffffffffffffffffffffff1673ffffffffffffffffffffffffffffffffffffffff1681526020018773ffffffffffffffffffffffffffffffffffffffff1673ffffffffffffffffffffffffffffffffffffffff1681526020018681526020018581526020018460ff1660ff168152602001838152602001828152602001975050505050505050600060405180830381600087803b15801561181157600080fd5b505af1158015611825573d6000803e3d6000fd5b505050506118388f8f8f8f8f8f8f61264b565b809450819550505050509b509b9950505050505050505050565b606081428110156118cb576040517f08c379a00000000000000000000000000000000000000000000000000000000081526004018080602001828103825260168152602001807f50616e63616b65526f757465723a20455850495245440000000000000000000081525060200191505060405180910390fd5b6119377f000000000000000000000000000000000000000000000000000000000000000089888880806020026020016040519081016040528093929190818152602001838360200280828437600081840152601f19601f82011690508083019250505050505050613a28565b9150868260018451038151811061194a57fe5b602002602001015110156119a9576040517f08c379a0000000000000000000000000000000000000000000000000000000008152600401808060200182810382526029815260200180614da76029913960400191505060405180910390fd5b611a6e868660008181106119b957fe5b9050602002013573ffffffffffffffffffffffffffffffffffffffff1633611a547f00000000000000000000000000000000000000000000000000000000000000008a8a6000818110611a0857fe5b9050602002013573ffffffffffffffffffffffffffffffffffffffff168b8b6001818110611a3257fe5b9050602002013573ffffffffffffffffffffffffffffffffffffffff16613ba0565b85600081518110611a6157fe5b6020026020010151613cfb565b611aba82878780806020026020016040519081016040528093929190818152602001838360200280828437600081840152601f19601f8201169050808301925050505050505086613f0c565b509695505050505050565b60608142811015611b3e576040517f08c379a00000000000000000000000000000000000000000000000000000000081526004018080602001828103825260168152602001807f50616e63616b65526f757465723a20455850495245440000000000000000000081525060200191505060405180910390fd5b7f000000000000000000000000000000000000000000000000000000000000000073ffffffffffffffffffffffffffffffffffffffff16868660018989905003818110611b8757fe5b9050602002013573ffffffffffffffffffffffffffffffffffffffff1673ffffffffffffffffffffffffffffffffffffffff1614611c2d576040517f08c379a000000000000000000000000000000000000000000000000000000000815260040180806020018281038252601b8152602001807f50616e63616b65526f757465723a20494e56414c49445f50415448000000000081525060200191505060405180910390fd5b611c997f000000000000000000000000000000000000000000000000000000000000000089888880806020026020016040519081016040528093929190818152602001838360200280828437600081840152601f19601f820116905080830192505050505050506141b7565b91508682600081518110611ca957fe5b60200260200101511115611d08576040517f08c379a0000000000000000000000000000000000000000000000000000000008152600401808060200182810382526025815260200180614e5d6025913960400191505060405180910390fd5b611dcd86866000818110611d1857fe5b9050602002013573ffffffffffffffffffffffffffffffffffffffff1633611db37f00000000000000000000000000000000000000000000000000000000000000008a8a6000818110611d6757fe5b9050602002013573ffffffffffffffffffffffffffffffffffffffff168b8b6001818110611d9157fe5b9050602002013573ffffffffffffffffffffffffffffffffffffffff16613ba0565b85600081518110611dc057fe5b6020026020010151613cfb565b611e1982878780806020026020016040519081016040528093929190818152602001838360200280828437600081840152601f19601f8201169050808301925050505050505030613f0c565b7f000000000000000000000000000000000000000000000000000000000000000073ffffffffffffffffffffffffffffffffffffffff16632e1a7d4d83600185510381518110611e6557fe5b60200260200101516040518263ffffffff1660e01b815260040180828152602001915050600060405180830381600087803b158015611ea357600080fd5b505af1158015611eb7573d6000803e3d6000fd5b50505050611edc8483600185510381518110611ecf57fe5b6020026020010151613799565b509695505050505050565b60608142811015611f60576040517f08c379a00000000000000000000000000000000000000000000000000000000081526004018080602001828103825260168152602001807f50616e63616b65526f757465723a20455850495245440000000000000000000081525060200191505060405180910390fd5b7f000000000000000000000000000000000000000000000000000000000000000073ffffffffffffffffffffffffffffffffffffffff1686866000818110611fa457fe5b9050602002013573ffffffffffffffffffffffffffffffffffffffff1673ffffffffffffffffffffffffffffffffffffffff161461204a576040517f08c379a000000000000000000000000000000000000000000000000000000000815260040180806020018281038252601b8152602001807f50616e63616b65526f757465723a20494e56414c49445f50415448000000000081525060200191505060405180910390fd5b6120b67f000000000000000000000000000000000000000000000000000000000000000034888880806020026020016040519081016040528093929190818152602001838360200280828437600081840152601f19601f82011690508083019250505050505050613a28565b915086826001845103815181106120c957fe5b60200260200101511015612128576040517f08c379a0000000000000000000000000000000000000000000000000000000008152600401808060200182810382526029815260200180614da76029913960400191505060405180910390fd5b7f000000000000000000000000000000000000000000000000000000000000000073ffffffffffffffffffffffffffffffffffffffff1663d0e30db08360008151811061217157fe5b60200260200101516040518263ffffffff1660e01b81526004016000604051808303818588803b1580156121a457600080fd5b505af11580156121b8573d6000803e3d6000fd5b50505050507f000000000000000000000000000000000000000000000000000000000000000073ffffffffffffffffffffffffffffffffffffffff1663a9059cbb6122767f00000000000000000000000000000000000000000000000000000000000000008989600081811061222a57fe5b9050602002013573ffffffffffffffffffffffffffffffffffffffff168a8a600181811061225457fe5b9050602002013573ffffffffffffffffffffffffffffffffffffffff16613ba0565b8460008151811061228357fe5b60200260200101516040518363ffffffff1660e01b8152600401808373ffffffffffffffffffffffffffffffffffffffff1673ffffffffffffffffffffffffffffffffffffffff16815260200182815260200192505050602060405180830381600087803b1580156122f457600080fd5b505af1158015612308573d6000803e3d6000fd5b505050506040513d602081101561231e57600080fd5b810190808051906020019092919050505061233557fe5b61238182878780806020026020016040519081016040528093929190818152602001838360200280828437600081840152601f19601f8201169050808301925050505050505086613f0c565b5095945050505050565b60006123988484846138f8565b90509392505050565b6060814281101561241a576040517f08c379a00000000000000000000000000000000000000000000000000000000081526004018080602001828103825260168152602001807f50616e63616b65526f757465723a20455850495245440000000000000000000081525060200191505060405180910390fd5b6124867f000000000000000000000000000000000000000000000000000000000000000089888880806020026020016040519081016040528093929190818152602001838360200280828437600081840152601f19601f820116905080830192505050505050506141b7565b9150868260008151811061249657fe5b602002602001015111156124f5576040517f08c379a0000000000000000000000000000000000000000000000000000000008152600401808060200182810382526025815260200180614e5d6025913960400191505060405180910390fd5b6125ba8686600081811061250557fe5b9050602002013573ffffffffffffffffffffffffffffffffffffffff16336125a07f00000000000000000000000000000000000000000000000000000000000000008a8a600081811061255457fe5b9050602002013573ffffffffffffffffffffffffffffffffffffffff168b8b600181811061257e57fe5b9050602002013573ffffffffffffffffffffffffffffffffffffffff16613ba0565b856000815181106125ad57fe5b6020026020010151613cfb565b61260682878780806020026020016040519081016040528093929190818152602001838360200280828437600081840152601f19601f8201169050808301925050505050505086613f0c565b509695505050505050565b7f000000000000000000000000000000000000000000000000000000000000000081565b6000612642848484614337565b90509392505050565b60008082428110156126c5576040517f08c379a00000000000000000000000000000000000000000000000000000000081526004018080602001828103825260168152602001807f50616e63616b65526f757465723a20455850495245440000000000000000000081525060200191505060405180910390fd5b60006126f27f00000000000000000000000000000000000000000000000000000000000000008c8c613ba0565b90508073ffffffffffffffffffffffffffffffffffffffff166323b872dd33838c6040518463ffffffff1660e01b8152600401808473ffffffffffffffffffffffffffffffffffffffff1673ffffffffffffffffffffffffffffffffffffffff1681526020018373ffffffffffffffffffffffffffffffffffffffff1673ffffffffffffffffffffffffffffffffffffffff1681526020018281526020019350505050602060405180830381600087803b1580156127af57600080fd5b505af11580156127c3573d6000803e3d6000fd5b505050506040513d60208110156127d957600080fd5b8101908080519060200190929190505050506000808273ffffffffffffffffffffffffffffffffffffffff166389afcb44896040518263ffffffff1660e01b8152600401808273ffffffffffffffffffffffffffffffffffffffff1673ffffffffffffffffffffffffffffffffffffffff1681526020019150506040805180830381600087803b15801561286c57600080fd5b505af1158015612880573d6000803e3d6000fd5b505050506040513d604081101561289657600080fd5b8101908080519060200190929190805190602001909291905050509150915060006128c18e8e61441b565b5090508073ffffffffffffffffffffffffffffffffffffffff168e73ffffffffffffffffffffffffffffffffffffffff16146128fe578183612901565b82825b80975081985050508a871015612962576040517f08c379a0000000000000000000000000000000000000000000000000000000008152600401808060200182810382526024815260200180614df36024913960400191505060405180910390fd5b898610156129bb576040517f08c379a0000000000000000000000000000000000000000000000000000000008152600401808060200182810382526024815260200180614ecc6024913960400191505060405180910390fd5b505050505097509795505050505050565b7f000000000000000000000000000000000000000000000000000000000000000081565b6060612a1d7f00000000000000000000000000000000000000000000000000000000000000008484613a28565b905092915050565b6000806000612a757f00000000000000000000000000000000000000000000000000000000000000008e7f0000000000000000000000000000000000000000000000000000000000000000613ba0565b9050600087612a84578c612aa6565b7fffffffffffffffffffffffffffffffffffffffffffffffffffffffffffffffff5b90508173ffffffffffffffffffffffffffffffffffffffff1663d505accf3330848d8c8c8c6040518863ffffffff1660e01b8152600401808873ffffffffffffffffffffffffffffffffffffffff1673ffffffffffffffffffffffffffffffffffffffff1681526020018773ffffffffffffffffffffffffffffffffffffffff1673ffffffffffffffffffffffffffffffffffffffff1681526020018681526020018581526020018460ff1660ff168152602001838152602001828152602001975050505050505050600060405180830381600087803b158015612b8957600080fd5b505af1158015612b9d573d6000803e3d6000fd5b50505050612baf8e8e8e8e8e8e611100565b809450819550505050509a509a98505050505050505050565b60008060008342811015612c44576040517f08c379a00000000000000000000000000000000000000000000000000000000081526004018080602001828103825260168152602001807f50616e63616b65526f757465723a20455850495245440000000000000000000081525060200191505060405180910390fd5b612c528c8c8c8c8c8c614592565b80945081955050506000612c877f00000000000000000000000000000000000000000000000000000000000000008e8e613ba0565b9050612c958d338388613cfb565b612ca18c338387613cfb565b8073ffffffffffffffffffffffffffffffffffffffff16636a627842886040518263ffffffff1660e01b8152600401808273ffffffffffffffffffffffffffffffffffffffff1673ffffffffffffffffffffffffffffffffffffffff168152602001915050602060405180830381600087803b158015612d2057600080fd5b505af1158015612d34573d6000803e3d6000fd5b505050506040513d6020811015612d4a57600080fd5b810190808051906020019092919050505092505050985098509895505050505050565b60008060008342811015612de9576040517f08c379a00000000000000000000000000000000000000000000000000000000081526004018080602001828103825260168152602001807f50616e63616b65526f757465723a20455850495245440000000000000000000081525060200191505060405180910390fd5b612e178a7f00000000000000000000000000000000000000000000000000000000000000008b348c8c614592565b80945081955050506000612e6c7f00000000000000000000000000000000000000000000000000000000000000008c7f0000000000000000000000000000000000000000000000000000000000000000613ba0565b9050612e7a8b338388613cfb565b7f000000000000000000000000000000000000000000000000000000000000000073ffffffffffffffffffffffffffffffffffffffff1663d0e30db0856040518263ffffffff1660e01b81526004016000604051808303818588803b158015612ee257600080fd5b505af1158015612ef6573d6000803e3d6000fd5b50505050507f000000000000000000000000000000000000000000000000000000000000000073ffffffffffffffffffffffffffffffffffffffff1663a9059cbb82866040518363ffffffff1660e01b8152600401808373ffffffffffffffffffffffffffffffffffffffff1673ffffffffffffffffffffffffffffffffffffffff16815260200182815260200192505050602060405180830381600087803b158015612fa257600080fd5b505af1158015612fb6573d6000803e3d6000fd5b505050506040513d6020811015612fcc57600080fd5b8101908080519060200190929190505050612fe357fe5b8073ffffffffffffffffffffffffffffffffffffffff16636a627842886040518263ffffffff1660e01b8152600401808273ffffffffffffffffffffffffffffffffffffffff1673ffffffffffffffffffffffffffffffffffffffff168152602001915050602060405180830381600087803b15801561306257600080fd5b505af1158015613076573d6000803e3d6000fd5b505050506040513d602081101561308c57600080fd5b81019080805190602001909291905050509250833411156130b4576130b333853403613799565b5b505096509650969350505050565b6060814281101561313b576040517f08c379a00000000000000000000000000000000000000000000000000000000081526004018080602001828103825260168152602001807f50616e63616b65526f757465723a20455850495245440000000000000000000081525060200191505060405180910390fd5b7f000000000000000000000000000000000000000000000000000000000000000073ffffffffffffffffffffffffffffffffffffffff168686600081811061317f57fe5b9050602002013573ffffffffffffffffffffffffffffffffffffffff1673ffffffffffffffffffffffffffffffffffffffff1614613225576040517f08c379a000000000000000000000000000000000000000000000000000000000815260040180806020018281038252601b8152602001807f50616e63616b65526f757465723a20494e56414c49445f50415448000000000081525060200191505060405180910390fd5b6132917f000000000000000000000000000000000000000000000000000000000000000088888880806020026020016040519081016040528093929190818152602001838360200280828437600081840152601f19601f820116905080830192505050505050506141b7565b915034826000815181106132a157fe5b60200260200101511115613300576040517f08c379a0000000000000000000000000000000000000000000000000000000008152600401808060200182810382526025815260200180614e5d6025913960400191505060405180910390fd5b7f000000000000000000000000000000000000000000000000000000000000000073ffffffffffffffffffffffffffffffffffffffff1663d0e30db08360008151811061334957fe5b60200260200101516040518263ffffffff1660e01b81526004016000604051808303818588803b15801561337c57600080fd5b505af1158015613390573d6000803e3d6000fd5b50505050507f000000000000000000000000000000000000000000000000000000000000000073ffffffffffffffffffffffffffffffffffffffff1663a9059cbb61344e7f00000000000000000000000000000000000000000000000000000000000000008989600081811061340257fe5b9050602002013573ffffffffffffffffffffffffffffffffffffffff168a8a600181811061342c57fe5b9050602002013573ffffffffffffffffffffffffffffffffffffffff16613ba0565b8460008151811061345b57fe5b60200260200101516040518363ffffffff1660e01b8152600401808373ffffffffffffffffffffffffffffffffffffffff1673ffffffffffffffffffffffffffffffffffffffff16815260200182815260200192505050602060405180830381600087803b1580156134cc57600080fd5b505af11580156134e0573d6000803e3d6000fd5b505050506040513d60208110156134f657600080fd5b810190808051906020019092919050505061350d57fe5b61355982878780806020026020016040519081016040528093929190818152602001838360200280828437600081840152601f19601f8201169050808301925050505050505086613f0c565b8160008151811061356657fe5b602002602001015134111561359657613595338360008151811061358657fe5b60200260200101513403613799565b5b5095945050505050565b600060608473ffffffffffffffffffffffffffffffffffffffff1663a9059cbb8585604051602401808373ffffffffffffffffffffffffffffffffffffffff1673ffffffffffffffffffffffffffffffffffffffff168152602001828152602001925050506040516020818303038152906040529060e01b6020820180517bffffffffffffffffffffffffffffffffffffffffffffffffffffffff83818316178352505050506040518082805190602001908083835b602083106136795780518252602082019150602081019050602083039250613656565b6001836020036101000a0380198251168184511680821785525050505050509050019150506000604051808303816000865af19150503d80600081146136db576040519150601f19603f3d011682016040523d82523d6000602084013e6136e0565b606091505b5091509150818015613720575060008151148061371f575080806020019051602081101561370d57600080fd5b81019080805190602001909291905050505b5b613792576040517f08c379a000000000000000000000000000000000000000000000000000000000815260040180806020018281038252601f8152602001807f5472616e7366657248656c7065723a205452414e534645525f4641494c45440081525060200191505060405180910390fd5b5050505050565b60008273ffffffffffffffffffffffffffffffffffffffff1682600067ffffffffffffffff811180156137cb57600080fd5b506040519080825280601f01601f1916602001820160405280156137fe5781602001600182028036833780820191505090505b506040518082805190602001908083835b60208310613832578051825260208201915060208101905060208303925061380f565b6001836020036101000a03801982511681845116808217855250505050505090500191505060006040518083038185875af1925050503d8060008114613894576040519150601f19603f3d011682016040523d82523d6000602084013e613899565b606091505b50509050806138f3576040517f08c379a0000000000000000000000000000000000000000000000000000000008152600401808060200182810382526023815260200180614e3a6023913960400191505060405180910390fd5b505050565b6000808411613952576040517f08c379a0000000000000000000000000000000000000000000000000000000008152600401808060200182810382526029815260200180614d546029913960400191505060405180910390fd5b6000831180156139625750600082115b6139b7576040517f08c379a0000000000000000000000000000000000000000000000000000000008152600401808060200182810382526026815260200180614e826026913960400191505060405180910390fd5b60006139ce6103e68661494690919063ffffffff16565b905060006139e5848361494690919063ffffffff16565b90506000613a1083613a026103e88961494690919063ffffffff16565b6149db90919063ffffffff16565b9050808281613a1b57fe5b0493505050509392505050565b6060600282511015613aa2576040517f08c379a000000000000000000000000000000000000000000000000000000000815260040180806020018281038252601c8152602001807f50616e63616b654c6962726172793a20494e56414c49445f504154480000000081525060200191505060405180910390fd5b815167ffffffffffffffff81118015613aba57600080fd5b50604051908082528060200260200182016040528015613ae95781602001602082028036833780820191505090505b5090508281600081518110613afa57fe5b60200260200101818152505060005b6001835103811015613b9857600080613b4c87868581518110613b2857fe5b6020026020010151876001870181518110613b3f57fe5b6020026020010151614a5e565b91509150613b6e848481518110613b5f57fe5b602002602001015183836138f8565b846001850181518110613b7d57fe5b60200260200101818152505050508080600101915050613b09565b509392505050565b6000806000613baf858561441b565b91509150858282604051602001808373ffffffffffffffffffffffffffffffffffffffff1673ffffffffffffffffffffffffffffffffffffffff1660601b81526014018273ffffffffffffffffffffffffffffffffffffffff1673ffffffffffffffffffffffffffffffffffffffff1660601b8152601401925050506040516020818303038152906040528051906020012060405160200180807fff000000000000000000000000000000000000000000000000000000000000008152506001018373ffffffffffffffffffffffffffffffffffffffff1673ffffffffffffffffffffffffffffffffffffffff1660601b8152601401828152602001807f7a176b3ac3b2e3ab867a13b501945f46c715974f1eca5947862f5752c8bdbfe8815250602001925050506040516020818303038152906040528051906020012060001c925050509392505050565b600060608573ffffffffffffffffffffffffffffffffffffffff166323b872dd868686604051602401808473ffffffffffffffffffffffffffffffffffffffff1673ffffffffffffffffffffffffffffffffffffffff1681526020018373ffffffffffffffffffffffffffffffffffffffff1673ffffffffffffffffffffffffffffffffffffffff16815260200182815260200193505050506040516020818303038152906040529060e01b6020820180517bffffffffffffffffffffffffffffffffffffffffffffffffffffffff83818316178352505050506040518082805190602001908083835b60208310613e085780518252602082019150602081019050602083039250613de5565b6001836020036101000a0380198251168184511680821785525050505050509050019150506000604051808303816000865af19150503d8060008114613e6a576040519150601f19603f3d011682016040523d82523d6000602084013e613e6f565b606091505b5091509150818015613eaf5750600081511480613eae5750808060200190516020811015613e9c57600080fd5b81019080805190602001909291905050505b5b613f04576040517f08c379a0000000000000000000000000000000000000000000000000000000008152600401808060200182810382526024815260200180614ea86024913960400191505060405180910390fd5b505050505050565b60005b60018351038110156141b157600080848381518110613f2a57fe5b6020026020010151856001850181518110613f4157fe5b6020026020010151915091506000613f59838361441b565b5090506000876001860181518110613f6d57fe5b602002602001015190506000808373ffffffffffffffffffffffffffffffffffffffff168673ffffffffffffffffffffffffffffffffffffffff1614613fb557826000613fb9565b6000835b91509150600060028a51038810613fd05788614012565b6140117f0000000000000000000000000000000000000000000000000000000000000000878c60028c018151811061400457fe5b6020026020010151613ba0565b5b905061403f7f00000000000000000000000000000000000000000000000000000000000000008888613ba0565b73ffffffffffffffffffffffffffffffffffffffff1663022c0d9f848484600067ffffffffffffffff8111801561407557600080fd5b506040519080825280601f01601f1916602001820160405280156140a85781602001600182028036833780820191505090505b506040518563ffffffff1660e01b8152600401808581526020018481526020018373ffffffffffffffffffffffffffffffffffffffff1673ffffffffffffffffffffffffffffffffffffffff16815260200180602001828103825283818151815260200191508051906020019080838360005b8381101561413657808201518184015260208101905061411b565b50505050905090810190601f1680156141635780820380516001836020036101000a031916815260200191505b5095505050505050600060405180830381600087803b15801561418557600080fd5b505af1158015614199573d6000803e3d6000fd5b50505050505050505050508080600101915050613f0f565b50505050565b6060600282511015614231576040517f08c379a000000000000000000000000000000000000000000000000000000000815260040180806020018281038252601c8152602001807f50616e63616b654c6962726172793a20494e56414c49445f504154480000000081525060200191505060405180910390fd5b815167ffffffffffffffff8111801561424957600080fd5b506040519080825280602002602001820160405280156142785781602001602082028036833780820191505090505b509050828160018351038151811061428c57fe5b6020026020010181815250506000600183510390505b600081111561432f576000806142e2878660018603815181106142c157fe5b60200260200101518786815181106142d557fe5b6020026020010151614a5e565b915091506143048484815181106142f557fe5b60200260200101518383614b93565b84600185038151811061431357fe5b60200260200101818152505050508080600190039150506142a2565b509392505050565b6000808411614391576040517f08c379a0000000000000000000000000000000000000000000000000000000008152600401808060200182810382526023815260200180614e176023913960400191505060405180910390fd5b6000831180156143a15750600082115b6143f6576040517f08c379a0000000000000000000000000000000000000000000000000000000008152600401808060200182810382526026815260200180614e826026913960400191505060405180910390fd5b8261440a838661494690919063ffffffff16565b8161441157fe5b0490509392505050565b6000808273ffffffffffffffffffffffffffffffffffffffff168473ffffffffffffffffffffffffffffffffffffffff1614156144a3576040517f08c379a0000000000000000000000000000000000000000000000000000000008152600401808060200182810382526023815260200180614dd06023913960400191505060405180910390fd5b8273ffffffffffffffffffffffffffffffffffffffff168473ffffffffffffffffffffffffffffffffffffffff16106144dd5782846144e0565b83835b8092508193505050600073ffffffffffffffffffffffffffffffffffffffff168273ffffffffffffffffffffffffffffffffffffffff16141561458b576040517f08c379a000000000000000000000000000000000000000000000000000000000815260040180806020018281038252601c8152602001807f50616e63616b654c6962726172793a205a45524f5f414444524553530000000081525060200191505060405180910390fd5b9250929050565b600080600073ffffffffffffffffffffffffffffffffffffffff167f000000000000000000000000000000000000000000000000000000000000000073ffffffffffffffffffffffffffffffffffffffff1663e6a439058a8a6040518363ffffffff1660e01b8152600401808373ffffffffffffffffffffffffffffffffffffffff1673ffffffffffffffffffffffffffffffffffffffff1681526020018273ffffffffffffffffffffffffffffffffffffffff1673ffffffffffffffffffffffffffffffffffffffff1681526020019250505060206040518083038186803b15801561467e57600080fd5b505afa158015614692573d6000803e3d6000fd5b505050506040513d60208110156146a857600080fd5b810190808051906020019092919050505073ffffffffffffffffffffffffffffffffffffffff1614156147e5577f000000000000000000000000000000000000000000000000000000000000000073ffffffffffffffffffffffffffffffffffffffff1663c9c6539689896040518363ffffffff1660e01b8152600401808373ffffffffffffffffffffffffffffffffffffffff1673ffffffffffffffffffffffffffffffffffffffff1681526020018273ffffffffffffffffffffffffffffffffffffffff1673ffffffffffffffffffffffffffffffffffffffff16815260200192505050602060405180830381600087803b1580156147a857600080fd5b505af11580156147bc573d6000803e3d6000fd5b505050506040513d60208110156147d257600080fd5b8101908080519060200190929190505050505b6000806148137f00000000000000000000000000000000000000000000000000000000000000008b8b614a5e565b915091506000821480156148275750600081145b1561483b5787878094508195505050614939565b6000614848898484614337565b90508781116148b957858110156148aa576040517f08c379a0000000000000000000000000000000000000000000000000000000008152600401808060200182810382526024815260200180614ecc6024913960400191505060405180910390fd5b88818095508196505050614937565b60006148c6898486614337565b9050898111156148d257fe5b8781101561492b576040517f08c379a0000000000000000000000000000000000000000000000000000000008152600401808060200182810382526024815260200180614df36024913960400191505060405180910390fd5b80898096508197505050505b505b5050965096945050505050565b600080821480614963575082828385029250828161496057fe5b04145b6149d5576040517f08c379a00000000000000000000000000000000000000000000000000000000081526004018080602001828103825260148152602001807f64732d6d6174682d6d756c2d6f766572666c6f7700000000000000000000000081525060200191505060405180910390fd5b92915050565b6000828284019150811015614a58576040517f08c379a00000000000000000000000000000000000000000000000000000000081526004018080602001828103825260148152602001807f64732d6d6174682d6164642d6f766572666c6f7700000000000000000000000081525060200191505060405180910390fd5b92915050565b6000806000614a6d858561441b565b509050614a7b868686613ba0565b50600080614a8a888888613ba0565b73ffffffffffffffffffffffffffffffffffffffff16630902f1ac6040518163ffffffff1660e01b815260040160606040518083038186803b158015614acf57600080fd5b505afa158015614ae3573d6000803e3d6000fd5b505050506040513d6060811015614af957600080fd5b81019080805190602001909291908051906020019092919080519060200190929190505050506dffffffffffffffffffffffffffff1691506dffffffffffffffffffffffffffff1691508273ffffffffffffffffffffffffffffffffffffffff168773ffffffffffffffffffffffffffffffffffffffff1614614b7d578082614b80565b81815b8095508196505050505050935093915050565b6000808411614bed576040517f08c379a000000000000000000000000000000000000000000000000000000000815260040180806020018281038252602a815260200180614d7d602a913960400191505060405180910390fd5b600083118015614bfd5750600082115b614c52576040517f08c379a0000000000000000000000000000000000000000000000000000000008152600401808060200182810382526026815260200180614e826026913960400191505060405180910390fd5b6000614c7b6103e8614c6d878761494690919063ffffffff16565b61494690919063ffffffff16565b90506000614ca66103e6614c988887614cd090919063ffffffff16565b61494690919063ffffffff16565b9050614cc56001828481614cb657fe5b046149db90919063ffffffff16565b925050509392505050565b6000828284039150811115614d4d576040517f08c379a00000000000000000000000000000000000000000000000000000000081526004018080602001828103825260158152602001807f64732d6d6174682d7375622d756e646572666c6f77000000000000000000000081525060200191505060405180910390fd5b9291505056fe50616e63616b654c6962726172793a20494e53554646494349454e545f494e5055545f414d4f554e5450616e63616b654c6962726172793a20494e53554646494349454e545f4f55545055545f414d4f554e5450616e63616b65526f757465723a20494e53554646494349454e545f4f55545055545f414d4f554e5450616e63616b654c6962726172793a204944454e544943414c5f41444452455353455350616e63616b65526f757465723a20494e53554646494349454e545f415f414d4f554e5450616e63616b654c6962726172793a20494e53554646494349454e545f414d4f554e545472616e7366657248656c7065723a204554485f5452414e534645525f4641494c454450616e63616b65526f757465723a204558434553534956455f494e5055545f414d4f554e5450616e63616b654c6962726172793a20494e53554646494349454e545f4c49515549444954595472616e7366657248656c7065723a205452414e534645525f46524f4d5f4641494c454450616e63616b65526f757465723a20494e53554646494349454e545f425f414d4f554e54a26469706673582212206bf9a6e5a041b671624cb6ff8cde587814d5e5bc1b5499b6f624900d1d79afab64736f6c63430006060033",
  "immutableReferences": {
    "2369": [
      {
        "length": 32,
        "start": 5088
      },
      {
        "length": 32,
        "start": 5356
      },
      {
        "length": 32,
        "start": 5791
      },
      {
        "length": 32,
        "start": 5847
      },
      {
        "length": 32,
        "start": 6352
      },
      {
        "length": 32,
        "start": 6620
      },
      {
        "length": 32,
        "start": 7218
      },
      {
        "length": 32,
        "start": 7483
      },
      {
        "length": 32,
        "start": 8271
      },
      {
        "length": 32,
        "start": 8702
      },
      {
        "length": 32,
        "start": 9247
      },
      {
        "length": 32,
        "start": 9512
      },
      {
        "length": 32,
        "start": 9932
      },
      {
        "length": 32,
        "start": 10702
      },
      {
        "length": 32,
        "start": 10743
      },
      {
        "length": 32,
        "start": 10799
      },
      {
        "length": 32,
        "start": 11361
      },
      {
        "length": 32,
        "start": 11814
      },
      {
        "length": 32,
        "start": 12842
      },
      {
        "length": 32,
        "start": 13270
      },
      {
        "length": 32,
        "start": 16341
      },
      {
        "length": 32,
        "start": 16409
      },
      {
        "length": 32,
        "start": 17839
      },
      {
        "length": 32,
        "start": 18135
      },
      {
        "length": 32,
        "start": 18413
      }
    ],
    "2372": [
      {
        "length": 32,
        "start": 287
      },
      {
        "length": 32,
        "start": 4480
      },
      {
        "length": 32,
        "start": 4542
      },
      {
        "length": 32,
        "start": 4846
      },
      {
        "length": 32,
        "start": 5580
      },
      {
        "length": 32,
        "start": 6976
      },
      {
        "length": 32,
        "start": 7707
      },
      {
        "length": 32,
        "start": 8034
      },
      {
        "length": 32,
        "start": 8490
      },
      {
        "length": 32,
        "start": 8639
      },
      {
        "length": 32,
        "start": 9747
      },
      {
        "length": 32,
        "start": 10833
      },
      {
        "length": 32,
        "start": 11759
      },
      {
        "length": 32,
        "start": 11848
      },
      {
        "length": 32,
        "start": 11900
      },
      {
        "length": 32,
        "start": 12029
      },
      {
        "length": 32,
        "start": 12605
      },
      {
        "length": 32,
        "start": 13058
      },
      {
        "length": 32,
        "start": 13207
      }
    ]
  },
  "source": "pragma solidity =0.6.6;\n\nimport './../../core/contracts/interfaces/IPancakeFactory.sol';\nimport '@uniswap/lib/contracts/libraries/TransferHelper.sol';\n\nimport './libraries/PancakeLibrary.sol';\nimport './interfaces/IPancakeRouter01.sol';\nimport './interfaces/IERC20.sol';\nimport './interfaces/IWETH.sol';\n\ncontract PancakeRouter01 is IPancakeRouter01 {\n    address public immutable override factory;\n    address public immutable override WETH;\n\n    modifier ensure(uint deadline) {\n        require(deadline >= block.timestamp, 'PancakeRouter: EXPIRED');\n        _;\n    }\n\n    constructor(address _factory, address _WETH) public {\n        factory = _factory;\n        WETH = _WETH;\n    }\n\n    receive() external payable {\n        assert(msg.sender == WETH); // only accept ETH via fallback from the WETH contract\n    }\n\n    // **** ADD LIQUIDITY ****\n    function _addLiquidity(\n        address tokenA,\n        address tokenB,\n        uint amountADesired,\n        uint amountBDesired,\n        uint amountAMin,\n        uint amountBMin\n    ) private returns (uint amountA, uint amountB) {\n        // create the pair if it doesn't exist yet\n        if (IPancakeFactory(factory).getPair(tokenA, tokenB) == address(0)) {\n            IPancakeFactory(factory).createPair(tokenA, tokenB);\n        }\n        (uint reserveA, uint reserveB) = PancakeLibrary.getReserves(factory, tokenA, tokenB);\n        if (reserveA == 0 && reserveB == 0) {\n            (amountA, amountB) = (amountADesired, amountBDesired);\n        } else {\n            uint amountBOptimal = PancakeLibrary.quote(amountADesired, reserveA, reserveB);\n            if (amountBOptimal <= amountBDesired) {\n                require(amountBOptimal >= amountBMin, 'PancakeRouter: INSUFFICIENT_B_AMOUNT');\n                (amountA, amountB) = (amountADesired, amountBOptimal);\n            } else {\n                uint amountAOptimal = PancakeLibrary.quote(amountBDesired, reserveB, reserveA);\n                assert(amountAOptimal <= amountADesired);\n                require(amountAOptimal >= amountAMin, 'PancakeRouter: INSUFFICIENT_A_AMOUNT');\n                (amountA, amountB) = (amountAOptimal, amountBDesired);\n            }\n        }\n    }\n    function addLiquidity(\n        address tokenA,\n        address tokenB,\n        uint amountADesired,\n        uint amountBDesired,\n        uint amountAMin,\n        uint amountBMin,\n        address to,\n        uint deadline\n    ) external override ensure(deadline) returns (uint amountA, uint amountB, uint liquidity) {\n        (amountA, amountB) = _addLiquidity(tokenA, tokenB, amountADesired, amountBDesired, amountAMin, amountBMin);\n        address pair = PancakeLibrary.pairFor(factory, tokenA, tokenB);\n        TransferHelper.safeTransferFrom(tokenA, msg.sender, pair, amountA);\n        TransferHelper.safeTransferFrom(tokenB, msg.sender, pair, amountB);\n        liquidity = IPancakePair(pair).mint(to);\n    }\n    function addLiquidityETH(\n        address token,\n        uint amountTokenDesired,\n        uint amountTokenMin,\n        uint amountETHMin,\n        address to,\n        uint deadline\n    ) external override payable ensure(deadline) returns (uint amountToken, uint amountETH, uint liquidity) {\n        (amountToken, amountETH) = _addLiquidity(\n            token,\n            WETH,\n            amountTokenDesired,\n            msg.value,\n            amountTokenMin,\n            amountETHMin\n        );\n        address pair = PancakeLibrary.pairFor(factory, token, WETH);\n        TransferHelper.safeTransferFrom(token, msg.sender, pair, amountToken);\n        IWETH(WETH).deposit{value: amountETH}();\n        assert(IWETH(WETH).transfer(pair, amountETH));\n        liquidity = IPancakePair(pair).mint(to);\n        if (msg.value > amountETH) TransferHelper.safeTransferETH(msg.sender, msg.value - amountETH); // refund dust eth, if any\n    }\n\n    // **** REMOVE LIQUIDITY ****\n    function removeLiquidity(\n        address tokenA,\n        address tokenB,\n        uint liquidity,\n        uint amountAMin,\n        uint amountBMin,\n        address to,\n        uint deadline\n    ) public override ensure(deadline) returns (uint amountA, uint amountB) {\n        address pair = PancakeLibrary.pairFor(factory, tokenA, tokenB);\n        IPancakePair(pair).transferFrom(msg.sender, pair, liquidity); // send liquidity to pair\n        (uint amount0, uint amount1) = IPancakePair(pair).burn(to);\n        (address token0,) = PancakeLibrary.sortTokens(tokenA, tokenB);\n        (amountA, amountB) = tokenA == token0 ? (amount0, amount1) : (amount1, amount0);\n        require(amountA >= amountAMin, 'PancakeRouter: INSUFFICIENT_A_AMOUNT');\n        require(amountB >= amountBMin, 'PancakeRouter: INSUFFICIENT_B_AMOUNT');\n    }\n    function removeLiquidityETH(\n        address token,\n        uint liquidity,\n        uint amountTokenMin,\n        uint amountETHMin,\n        address to,\n        uint deadline\n    ) public override ensure(deadline) returns (uint amountToken, uint amountETH) {\n        (amountToken, amountETH) = removeLiquidity(\n            token,\n            WETH,\n            liquidity,\n            amountTokenMin,\n            amountETHMin,\n            address(this),\n            deadline\n        );\n        TransferHelper.safeTransfer(token, to, amountToken);\n        IWETH(WETH).withdraw(amountETH);\n        TransferHelper.safeTransferETH(to, amountETH);\n    }\n    function removeLiquidityWithPermit(\n        address tokenA,\n        address tokenB,\n        uint liquidity,\n        uint amountAMin,\n        uint amountBMin,\n        address to,\n        uint deadline,\n        bool approveMax, uint8 v, bytes32 r, bytes32 s\n    ) external override returns (uint amountA, uint amountB) {\n        address pair = PancakeLibrary.pairFor(factory, tokenA, tokenB);\n        uint value = approveMax ? uint(-1) : liquidity;\n        IPancakePair(pair).permit(msg.sender, address(this), value, deadline, v, r, s);\n        (amountA, amountB) = removeLiquidity(tokenA, tokenB, liquidity, amountAMin, amountBMin, to, deadline);\n    }\n    function removeLiquidityETHWithPermit(\n        address token,\n        uint liquidity,\n        uint amountTokenMin,\n        uint amountETHMin,\n        address to,\n        uint deadline,\n        bool approveMax, uint8 v, bytes32 r, bytes32 s\n    ) external override returns (uint amountToken, uint amountETH) {\n        address pair = PancakeLibrary.pairFor(factory, token, WETH);\n        uint value = approveMax ? uint(-1) : liquidity;\n        IPancakePair(pair).permit(msg.sender, address(this), value, deadline, v, r, s);\n        (amountToken, amountETH) = removeLiquidityETH(token, liquidity, amountTokenMin, amountETHMin, to, deadline);\n    }\n\n    // **** SWAP ****\n    // requires the initial amount to have already been sent to the first pair\n    function _swap(uint[] memory amounts, address[] memory path, address _to) private {\n        for (uint i; i < path.length - 1; i++) {\n            (address input, address output) = (path[i], path[i + 1]);\n            (address token0,) = PancakeLibrary.sortTokens(input, output);\n            uint amountOut = amounts[i + 1];\n            (uint amount0Out, uint amount1Out) = input == token0 ? (uint(0), amountOut) : (amountOut, uint(0));\n            address to = i < path.length - 2 ? PancakeLibrary.pairFor(factory, output, path[i + 2]) : _to;\n            IPancakePair(PancakeLibrary.pairFor(factory, input, output)).swap(amount0Out, amount1Out, to, new bytes(0));\n        }\n    }\n    function swapExactTokensForTokens(\n        uint amountIn,\n        uint amountOutMin,\n        address[] calldata path,\n        address to,\n        uint deadline\n    ) external override ensure(deadline) returns (uint[] memory amounts) {\n        amounts = PancakeLibrary.getAmountsOut(factory, amountIn, path);\n        require(amounts[amounts.length - 1] >= amountOutMin, 'PancakeRouter: INSUFFICIENT_OUTPUT_AMOUNT');\n        TransferHelper.safeTransferFrom(path[0], msg.sender, PancakeLibrary.pairFor(factory, path[0], path[1]), amounts[0]);\n        _swap(amounts, path, to);\n    }\n    function swapTokensForExactTokens(\n        uint amountOut,\n        uint amountInMax,\n        address[] calldata path,\n        address to,\n        uint deadline\n    ) external override ensure(deadline) returns (uint[] memory amounts) {\n        amounts = PancakeLibrary.getAmountsIn(factory, amountOut, path);\n        require(amounts[0] <= amountInMax, 'PancakeRouter: EXCESSIVE_INPUT_AMOUNT');\n        TransferHelper.safeTransferFrom(path[0], msg.sender, PancakeLibrary.pairFor(factory, path[0], path[1]), amounts[0]);\n        _swap(amounts, path, to);\n    }\n    function swapExactETHForTokens(uint amountOutMin, address[] calldata path, address to, uint deadline)\n        external\n        override\n        payable\n        ensure(deadline)\n        returns (uint[] memory amounts)\n    {\n        require(path[0] == WETH, 'PancakeRouter: INVALID_PATH');\n        amounts = PancakeLibrary.getAmountsOut(factory, msg.value, path);\n        require(amounts[amounts.length - 1] >= amountOutMin, 'PancakeRouter: INSUFFICIENT_OUTPUT_AMOUNT');\n        IWETH(WETH).deposit{value: amounts[0]}();\n        assert(IWETH(WETH).transfer(PancakeLibrary.pairFor(factory, path[0], path[1]), amounts[0]));\n        _swap(amounts, path, to);\n    }\n    function swapTokensForExactETH(uint amountOut, uint amountInMax, address[] calldata path, address to, uint deadline)\n        external\n        override\n        ensure(deadline)\n        returns (uint[] memory amounts)\n    {\n        require(path[path.length - 1] == WETH, 'PancakeRouter: INVALID_PATH');\n        amounts = PancakeLibrary.getAmountsIn(factory, amountOut, path);\n        require(amounts[0] <= amountInMax, 'PancakeRouter: EXCESSIVE_INPUT_AMOUNT');\n        TransferHelper.safeTransferFrom(path[0], msg.sender, PancakeLibrary.pairFor(factory, path[0], path[1]), amounts[0]);\n        _swap(amounts, path, address(this));\n        IWETH(WETH).withdraw(amounts[amounts.length - 1]);\n        TransferHelper.safeTransferETH(to, amounts[amounts.length - 1]);\n    }\n    function swapExactTokensForETH(uint amountIn, uint amountOutMin, address[] calldata path, address to, uint deadline)\n        external\n        override\n        ensure(deadline)\n        returns (uint[] memory amounts)\n    {\n        require(path[path.length - 1] == WETH, 'PancakeRouter: INVALID_PATH');\n        amounts = PancakeLibrary.getAmountsOut(factory, amountIn, path);\n        require(amounts[amounts.length - 1] >= amountOutMin, 'PancakeRouter: INSUFFICIENT_OUTPUT_AMOUNT');\n        TransferHelper.safeTransferFrom(path[0], msg.sender, PancakeLibrary.pairFor(factory, path[0], path[1]), amounts[0]);\n        _swap(amounts, path, address(this));\n        IWETH(WETH).withdraw(amounts[amounts.length - 1]);\n        TransferHelper.safeTransferETH(to, amounts[amounts.length - 1]);\n    }\n    function swapETHForExactTokens(uint amountOut, address[] calldata path, address to, uint deadline)\n        external\n        override\n        payable\n        ensure(deadline)\n        returns (uint[] memory amounts)\n    {\n        require(path[0] == WETH, 'PancakeRouter: INVALID_PATH');\n        amounts = PancakeLibrary.getAmountsIn(factory, amountOut, path);\n        require(amounts[0] <= msg.value, 'PancakeRouter: EXCESSIVE_INPUT_AMOUNT');\n        IWETH(WETH).deposit{value: amounts[0]}();\n        assert(IWETH(WETH).transfer(PancakeLibrary.pairFor(factory, path[0], path[1]), amounts[0]));\n        _swap(amounts, path, to);\n        if (msg.value > amounts[0]) TransferHelper.safeTransferETH(msg.sender, msg.value - amounts[0]); // refund dust eth, if any\n    }\n\n    function quote(uint amountA, uint reserveA, uint reserveB) public pure override returns (uint amountB) {\n        return PancakeLibrary.quote(amountA, reserveA, reserveB);\n    }\n\n    function getAmountOut(uint amountIn, uint reserveIn, uint reserveOut) public pure override returns (uint amountOut) {\n        return PancakeLibrary.getAmountOut(amountIn, reserveIn, reserveOut);\n    }\n\n    function getAmountIn(uint amountOut, uint reserveIn, uint reserveOut) public pure override returns (uint amountIn) {\n        return PancakeLibrary.getAmountOut(amountOut, reserveIn, reserveOut);\n    }\n\n    function getAmountsOut(uint amountIn, address[] memory path) public view override returns (uint[] memory amounts) {\n        return PancakeLibrary.getAmountsOut(factory, amountIn, path);\n    }\n\n    function getAmountsIn(uint amountOut, address[] memory path) public view override returns (uint[] memory amounts) {\n        return PancakeLibrary.getAmountsIn(factory, amountOut, path);\n    }\n}\n",
  "sourcePath": "/home/nazar/work/Blockchain/pancake/periphery/contracts/PancakeRouter01.sol",
  "compiler": {
    "name": "solc",
    "version": "0.6.6+commit.6c089d02.Emscripten.clang"
  },
  "schemaVersion": "3.3.4",
  "updatedAt": "2021-03-29T08:30:19.125Z",
  "networkType": "ethereum",
  "devdoc": {
    "methods": {}
  },
  "userdoc": {
    "methods": {}
  }
}